{"abi":[{"type":"constructor","inputs":[],"stateMutability":"nonpayable"},{"type":"function","name":"G","inputs":[],"outputs":[{"name":"x","type":"uint256","internalType":"uint256"},{"name":"y","type":"uint256","internalType":"uint256"}],"stateMutability":"view"},{"type":"function","name":"N","inputs":[],"outputs":[{"name":"","type":"uint256","internalType":"uint256"}],"stateMutability":"view"},{"type":"function","name":"modExp","inputs":[{"name":"base","type":"uint256","internalType":"uint256"},{"name":"exponent","type":"uint256","internalType":"uint256"},{"name":"modulus","type":"uint256","internalType":"uint256"}],"outputs":[{"name":"result","type":"uint256","internalType":"uint256"}],"stateMutability":"nonpayable"},{"type":"function","name":"rationalAdd","inputs":[{"name":"A","type":"tuple","internalType":"struct Problem1_Rationals.ECPoint","components":[{"name":"x","type":"uint256","internalType":"uint256"},{"name":"y","type":"uint256","internalType":"uint256"}]},{"name":"B","type":"tuple","internalType":"struct Problem1_Rationals.ECPoint","components":[{"name":"x","type":"uint256","internalType":"uint256"},{"name":"y","type":"uint256","internalType":"uint256"}]},{"name":"num","type":"uint256","internalType":"uint256"},{"name":"den","type":"uint256","internalType":"uint256"}],"outputs":[{"name":"verified","type":"bool","internalType":"bool"}],"stateMutability":"nonpayable"}],"bytecode":{"object":"0x6080604052348015600f57600080fd5b506040805180820190915260018082526002602090920182905260008190555561054e8061003e6000396000f3fe608060405234801561001057600080fd5b506004361061004c5760003560e01c80633148f14f146100515780636fecb62314610077578063c9e525df1461009a578063dfe3db50146100af575b600080fd5b61006461005f3660046103dd565b6100d2565b6040519081526020015b60405180910390f35b600054600154610085919082565b6040805192835260208301919091520161006e565b6100646000805160206104f983398151915281565b6100c26100bd366004610421565b610167565b604051901515815260200161006e565b604080516020808201819052818301819052606082018190526080820186905260a0820185905260c08083018590528351808403909101815260e0830182815261012084019094526000939092849290610100018180368337019050509050602080820160c06020850160055afa61014957600080fd5b8080602001905181019061015d9190610465565b9695505050505050565b6000808061018287356020808a0135908935908a013561020a565b909250905060006101ba856101a660026000805160206104f983398151915261047e565b6000805160206104f98339815191526100d2565b905060006000805160206104f983398151915282880990506000806101e96000800154600060010154856102fa565b9150915081861480156101fb57508085145b9b9a5050505050505050505050565b6040805160208101869052908101849052606081018390526080810182905260009081908190819060069060a00160408051601f1981840301815290829052610252916104a5565b600060405180830381855afa9150503d806000811461028d576040519150601f19603f3d011682016040523d82523d6000602084013e610292565b606091505b5091509150816102d75760405162461bcd60e51b815260206004820152600b60248201526a18d85b1b0819985a5b195960aa1b60448201526064015b60405180910390fd5b808060200190518101906102eb91906104d4565b93509350505094509492505050565b60408051602081018590529081018390526060810182905260009081908190819060079060800160408051601f198184030181529082905261033b916104a5565b600060405180830381855afa9150503d8060008114610376576040519150601f19603f3d011682016040523d82523d6000602084013e61037b565b606091505b5091509150816103bb5760405162461bcd60e51b815260206004820152600b60248201526a18d85b1b0819985a5b195960aa1b60448201526064016102ce565b808060200190518101906103cf91906104d4565b935093505050935093915050565b6000806000606084860312156103f257600080fd5b505081359360208301359350604090920135919050565b60006040828403121561041b57600080fd5b50919050565b60008060008060c0858703121561043757600080fd5b6104418686610409565b93506104508660408701610409565b939693955050505060808201359160a0013590565b60006020828403121561047757600080fd5b5051919050565b8181038181111561049f57634e487b7160e01b600052601160045260246000fd5b92915050565b6000825160005b818110156104c657602081860181015185830152016104ac565b506000920191825250919050565b600080604083850312156104e757600080fd5b50508051602090910151909290915056fe30644e72e131a029b85045b68181585d2833e84879b9709143e1f593f0000001a2646970667358221220824cab766293dada5e9fedec302cfb8489db2701749bcec63ff38a55947b017164736f6c63430008190033","linkReferences":{}},"methodIdentifiers":{"G()":"6fecb623","N()":"c9e525df","modExp(uint256,uint256,uint256)":"3148f14f","rationalAdd((uint256,uint256),(uint256,uint256),uint256,uint256)":"dfe3db50"},"id":23}